:100000000C9444000C9456000C9456000C9456002A
:100010000C94CF000C9456000C9456000C9456008F
:100020000C9456000C9456000C9456000C945600F8
:100030000C9456000C9456000C9456000C945600E8
:100040000C9456000C9456000C9456000C945600D8
:100050000C9456000C9456000C9456000C945600C8
:100060000C9456000C945600620066006A006F0003
:10007000740079007E00830087008C009100960058
:100080009B009F00A300A80011241FBECFEFD8E063
:10009000DEBFCDBF21E0A0E0B1E001C01D92A630DF
:1000A000B207E1F70E94CC000C944F020C940000C0
:1000B00090E08031910508F04FC0FC01EC5CFF4FEF
:1000C0000C9449028CEF8BB915B8089588E18BB96F
:1000D00015B808958CE68BB981E085B908958CE355
:1000E0008BB981E085B9089588E98BB981E085B93C
:1000F000089584EB8BB981E085B9089584EF8BB9BD
:1001000081E085B908958CE18BB915B808958CEF1D
:100110008BB981E085B908958CE98BB981E085B907
:1001200008958CED8BB981E085B908958CEF8BB97A
:1001300081E085B9089584EE8BB915B808958CEFE8
:100140008BB915B8089584EE8BB981E085B908950F
:100150008CE18BB981E085B90895F8941092C100C3
:100160008FEF8AB91BB884B915B887B1886187B990
:1001700088B1877E88B987B187B988B1876088B927
:10018000E8E6F0E0808182608083ECE6F0E0808148
:1001900087608083789408950E94AD00FFCF1F92FE
:1001A0000F920FB60F9211242F933F934F935F93AB
:1001B0006F937F938F939F93AF93BF93EF93FF932F
:1001C00030998BC080910501811152C1809100014D
:1001D000813009F44DC181E08093050180910301D4
:1001E000909104010196909304018093030101977B
:1001F00009F070C088B1877F88B988B1806188B9FB
:100200002FEF83ED90E3215080409040E1F700C054
:10021000000085E00E9458002FEF83ED90E321500D
:1002200080409040E1F700C0000084E00E94580048
:100230002FEF83ED90E3215080409040E1F700C024
:10024000000083E00E9458002FEF83ED90E32150DF
:1002500080409040E1F700C0000082E00E9458001A
:100260002FEF83ED90E3215080409040E1F700C0F4
:10027000000081E00E9458002FEF83ED90E32150B1
:1002800080409040E1F700C0000080E00E945800EC
:100290002FEF83ED90E3215080409040E1F700C0C4
:1002A00000001BB815B888B1886088B92FEF89E6BF
:1002B00098E1215080409040E1F700C0000088B1F3
:1002C0008F7E88B9109202011092010110920401F0
:1002D0001092030110920501CBC08091050181119C
:1002E000C7C031995CC0809100018111C1C080916B
:1002F00002018F5F809302012FEF84E39CE0215085
:1003000080409040E1F700C00000809102018430FD
:10031000F8F081E0809300018BB18C638BB98BB1D5
:100320008F738BB985B18C7F85B92FEF89E698E102
:10033000215080409040E1F700C0000088B1877FE5
:1003400088B988B1806188B981E00E94580090C066
:10035000823081F018F4813031F08AC0833089F026
:100360008430B1F085C08BB184608BB98BB1877C50
:100370008BB97EC08BB188608BB98BB18B7C8BB90C
:1003800077C08BB180618BB98BB1837D8BB970C025
:100390008BB180628BB98BB1837E8BB969C0329986
:1003A00067C080910001811163C0809101018F5F5E
:1003B000809301012FEF84E39CE021508040904026
:1003C000E1F700C00000809101018430F8F081E085
:1003D000809300018BB1806C8BB985B1836085B946
:1003E0008BB1837C8BB92FEF89E698E12150804057
:1003F0009040E1F700C0000088B1877F88B988B1DC
:10040000806188B982E00E94580032C0823099F041
:1004100018F4813031F02CC08330B9F08430F9F019
:1004200027C08BB180648BB98BB18F778BB985B1C5
:100430008C7F85B91DC08BB180688BB98BB18F7BE8
:100440008BB985B18C7F85B913C08BB18F738BB994
:1004500085B1816085B985B18D7F85B909C08BB1C2
:100460008F738BB985B1826085B985B18E7F85B96F
:10047000FF91EF91BF91AF919F918F917F916F917C
:100480005F914F913F912F910F900FBE0F901F9052
:100490001895EE0FFF1F0590F491E02D0994F89444
:0204A000FFCF8C
:00000001FF
